{
  "contractName": "Bank",
  "abi": [
    {
      "inputs": [
        {
          "internalType": "contract Governance",
          "name": "_governance",
          "type": "address"
        },
        {
          "internalType": "contract Utility",
          "name": "_utility",
          "type": "address"
        }
      ],
      "stateMutability": "nonpayable",
      "type": "constructor"
    },
    {
      "anonymous": false,
      "inputs": [
        {
          "indexed": false,
          "internalType": "address",
          "name": "receiver",
          "type": "address"
        },
        {
          "indexed": false,
          "internalType": "uint256",
          "name": "amount",
          "type": "uint256"
        }
      ],
      "name": "airdropped",
      "type": "event"
    },
    {
      "anonymous": false,
      "inputs": [
        {
          "indexed": false,
          "internalType": "address",
          "name": "user",
          "type": "address"
        },
        {
          "indexed": false,
          "internalType": "uint256",
          "name": "amount",
          "type": "uint256"
        }
      ],
      "name": "bought",
      "type": "event"
    },
    {
      "anonymous": false,
      "inputs": [
        {
          "indexed": false,
          "internalType": "address",
          "name": "user",
          "type": "address"
        },
        {
          "indexed": false,
          "internalType": "uint256",
          "name": "amount",
          "type": "uint256"
        }
      ],
      "name": "rewardGotten",
      "type": "event"
    },
    {
      "anonymous": false,
      "inputs": [
        {
          "indexed": false,
          "internalType": "address",
          "name": "staker",
          "type": "address"
        },
        {
          "indexed": false,
          "internalType": "uint256",
          "name": "amount",
          "type": "uint256"
        }
      ],
      "name": "tokenStaked",
      "type": "event"
    },
    {
      "anonymous": false,
      "inputs": [
        {
          "indexed": false,
          "internalType": "address",
          "name": "staker",
          "type": "address"
        },
        {
          "indexed": false,
          "internalType": "uint256",
          "name": "amount",
          "type": "uint256"
        }
      ],
      "name": "tokenUnstaked",
      "type": "event"
    },
    {
      "inputs": [
        {
          "internalType": "address",
          "name": "",
          "type": "address"
        }
      ],
      "name": "gottenAirdrop",
      "outputs": [
        {
          "internalType": "bool",
          "name": "",
          "type": "bool"
        }
      ],
      "stateMutability": "view",
      "type": "function"
    },
    {
      "inputs": [
        {
          "internalType": "address",
          "name": "",
          "type": "address"
        }
      ],
      "name": "staker",
      "outputs": [
        {
          "internalType": "uint256",
          "name": "balance",
          "type": "uint256"
        },
        {
          "internalType": "uint256",
          "name": "reward",
          "type": "uint256"
        },
        {
          "internalType": "uint256",
          "name": "stakedTime",
          "type": "uint256"
        },
        {
          "internalType": "bool",
          "name": "hasStaked",
          "type": "bool"
        }
      ],
      "stateMutability": "view",
      "type": "function"
    },
    {
      "inputs": [
        {
          "internalType": "uint256",
          "name": "",
          "type": "uint256"
        }
      ],
      "name": "stakers",
      "outputs": [
        {
          "internalType": "address",
          "name": "",
          "type": "address"
        }
      ],
      "stateMutability": "view",
      "type": "function"
    },
    {
      "inputs": [],
      "name": "getBankAddress",
      "outputs": [
        {
          "internalType": "address",
          "name": "",
          "type": "address"
        }
      ],
      "stateMutability": "view",
      "type": "function"
    },
    {
      "inputs": [],
      "name": "getUtilityAddress",
      "outputs": [
        {
          "internalType": "address",
          "name": "",
          "type": "address"
        }
      ],
      "stateMutability": "view",
      "type": "function"
    },
    {
      "inputs": [],
      "name": "getGovernanceAddress",
      "outputs": [
        {
          "internalType": "address",
          "name": "",
          "type": "address"
        }
      ],
      "stateMutability": "view",
      "type": "function"
    },
    {
      "inputs": [],
      "name": "getUTLBalance",
      "outputs": [
        {
          "internalType": "uint256",
          "name": "",
          "type": "uint256"
        }
      ],
      "stateMutability": "view",
      "type": "function"
    },
    {
      "inputs": [],
      "name": "getGVNBalance",
      "outputs": [
        {
          "internalType": "uint256",
          "name": "",
          "type": "uint256"
        }
      ],
      "stateMutability": "view",
      "type": "function"
    },
    {
      "inputs": [],
      "name": "getStakingBalance",
      "outputs": [
        {
          "internalType": "uint256",
          "name": "",
          "type": "uint256"
        }
      ],
      "stateMutability": "view",
      "type": "function"
    },
    {
      "inputs": [],
      "name": "getRewardPNL",
      "outputs": [
        {
          "internalType": "uint256",
          "name": "",
          "type": "uint256"
        }
      ],
      "stateMutability": "view",
      "type": "function"
    },
    {
      "inputs": [],
      "name": "getETHBalance",
      "outputs": [
        {
          "internalType": "uint256",
          "name": "",
          "type": "uint256"
        }
      ],
      "stateMutability": "view",
      "type": "function"
    },
    {
      "inputs": [],
      "name": "getOwner",
      "outputs": [
        {
          "internalType": "address",
          "name": "",
          "type": "address"
        }
      ],
      "stateMutability": "view",
      "type": "function"
    },
    {
      "inputs": [],
      "name": "getRewardRate",
      "outputs": [
        {
          "internalType": "uint256",
          "name": "",
          "type": "uint256"
        }
      ],
      "stateMutability": "view",
      "type": "function"
    },
    {
      "inputs": [],
      "name": "getTotalValueLocked",
      "outputs": [
        {
          "internalType": "uint256",
          "name": "",
          "type": "uint256"
        }
      ],
      "stateMutability": "view",
      "type": "function"
    },
    {
      "inputs": [],
      "name": "getAirdrop",
      "outputs": [],
      "stateMutability": "nonpayable",
      "type": "function"
    },
    {
      "inputs": [],
      "name": "buyTokenICO",
      "outputs": [],
      "stateMutability": "payable",
      "type": "function"
    },
    {
      "inputs": [
        {
          "internalType": "uint256",
          "name": "_amount",
          "type": "uint256"
        }
      ],
      "name": "stake",
      "outputs": [],
      "stateMutability": "nonpayable",
      "type": "function"
    },
    {
      "inputs": [],
      "name": "unStake",
      "outputs": [],
      "stateMutability": "nonpayable",
      "type": "function"
    },
    {
      "inputs": [],
      "name": "rewardGVN",
      "outputs": [],
      "stateMutability": "nonpayable",
      "type": "function"
    },
    {
      "inputs": [],
      "name": "updateRewardGVN",
      "outputs": [],
      "stateMutability": "nonpayable",
      "type": "function"
    }
  ],
  "bytecode": "0x60806040526001600260006101000a81548160ff021916908360ff1602179055503480156200002d57600080fd5b5060405162001bde38038062001bde8339818101604052810190620000539190620001f7565b81600260016101000a81548173ffffffffffffffffffffffffffffffffffffffff021916908373ffffffffffffffffffffffffffffffffffffffff16021790555080600360006101000a81548173ffffffffffffffffffffffffffffffffffffffff021916908373ffffffffffffffffffffffffffffffffffffffff160217905550620000e56200012c60201b60201c565b6000806101000a81548173ffffffffffffffffffffffffffffffffffffffff021916908373ffffffffffffffffffffffffffffffffffffffff16021790555050506200023e565b600033905090565b600080fd5b600073ffffffffffffffffffffffffffffffffffffffff82169050919050565b6000620001668262000139565b9050919050565b60006200017a8262000159565b9050919050565b6200018c816200016d565b81146200019857600080fd5b50565b600081519050620001ac8162000181565b92915050565b6000620001bf8262000159565b9050919050565b620001d181620001b2565b8114620001dd57600080fd5b50565b600081519050620001f181620001c6565b92915050565b6000806040838503121562000211576200021062000134565b5b600062000221858286016200019b565b92505060206200023485828601620001e0565b9150509250929050565b611990806200024e6000396000f3fe60806040526004361061011f5760003560e01c806382e4eda4116100a0578063c6b5ee1611610064578063c6b5ee161461035f578063d25f82a01461039c578063d2d1fba0146103b3578063dc6c3a03146103de578063fd5e6dd1146104095761011f565b806382e4eda41461027557806387483f81146102b5578063893d20e8146102e0578063a694fc3a1461030b578063b26025aa146103345761011f565b806366f780e9116100e757806366f780e9146101b25780636e947298146101dd578063732524941461020857806373cf575a146102335780637e1a37861461024a5761011f565b806313c3e09814610124578063186f68c01461014f57806330f16288146101595780634fe97a071461017057806362711a5d14610187575b600080fd5b34801561013057600080fd5b50610139610446565b6040516101469190611380565b60405180910390f35b610157610497565b005b34801561016557600080fd5b5061016e6105ca565b005b34801561017c57600080fd5b506101856105dc565b005b34801561019357600080fd5b5061019c610638565b6040516101a99190611380565b60405180910390f35b3480156101be57600080fd5b506101c7610689565b6040516101d491906113dc565b60405180910390f35b3480156101e957600080fd5b506101f2610691565b6040516101ff9190611380565b60405180910390f35b34801561021457600080fd5b5061021d610699565b60405161022a91906113dc565b60405180910390f35b34801561023f57600080fd5b506102486106c3565b005b34801561025657600080fd5b5061025f610874565b60405161026c9190611380565b60405180910390f35b34801561028157600080fd5b5061029c60048036038101906102979190611428565b61088e565b6040516102ac9493929190611470565b60405180910390f35b3480156102c157600080fd5b506102ca6108cb565b6040516102d79190611380565b60405180910390f35b3480156102ec57600080fd5b506102f5610975565b60405161030291906113dc565b60405180910390f35b34801561031757600080fd5b50610332600480360381019061032d91906114e1565b61099e565b005b34801561034057600080fd5b50610349610d61565b6040516103569190611380565b60405180910390f35b34801561036b57600080fd5b5061038660048036038101906103819190611428565b610d6b565b604051610393919061150e565b60405180910390f35b3480156103a857600080fd5b506103b1610d8b565b005b3480156103bf57600080fd5b506103c8610f7e565b6040516103d59190611380565b60405180910390f35b3480156103ea57600080fd5b506103f3611028565b60405161040091906113dc565b60405180910390f35b34801561041557600080fd5b50610430600480360381019061042b91906114e1565b611052565b60405161043d91906113dc565b60405180910390f35b600060066000610454611091565b73ffffffffffffffffffffffffffffffffffffffff1673ffffffffffffffffffffffffffffffffffffffff16815260200190815260200160002060010154905090565b6000349050600081116104df576040517f08c379a00000000000000000000000000000000000000000000000000000000081526004016104d690611586565b60405180910390fd5b600360009054906101000a900473ffffffffffffffffffffffffffffffffffffffff1673ffffffffffffffffffffffffffffffffffffffff1663a9059cbb610525611091565b836040518363ffffffff1660e01b81526004016105439291906115a6565b6020604051808303816000875af1158015610562573d6000803e3d6000fd5b505050506040513d601f19601f8201168201806040525081019061058691906115fb565b507f74f5fd5e58c3ec944ab8dbf077bf027876847cea1e7e828dd2a670d291b857fb6105b0611091565b826040516105bf9291906115a6565b60405180910390a150565b6105da6105d5611091565b611099565b565b6106366105e7611091565b600660006105f3611091565b73ffffffffffffffffffffffffffffffffffffffff1673ffffffffffffffffffffffffffffffffffffffff16815260200190815260200160002060010154611144565b565b600060066000610646611091565b73ffffffffffffffffffffffffffffffffffffffff1673ffffffffffffffffffffffffffffffffffffffff16815260200190815260200160002060000154905090565b600030905090565b600047905090565b6000600260019054906101000a900473ffffffffffffffffffffffffffffffffffffffff16905090565b6000600660006106d1611091565b73ffffffffffffffffffffffffffffffffffffffff1673ffffffffffffffffffffffffffffffffffffffff168152602001908152602001600020600001549050600360009054906101000a900473ffffffffffffffffffffffffffffffffffffffff1673ffffffffffffffffffffffffffffffffffffffff1663a9059cbb610757611091565b836040518363ffffffff1660e01b81526004016107759291906115a6565b6020604051808303816000875af1158015610794573d6000803e3d6000fd5b505050506040513d601f19601f820116820180604052508101906107b891906115fb565b507f043c90435807460f5c032d5abd97b3974fb0a05502f575c255625410b2af84e36107e2611091565b826040516107f19291906115a6565b60405180910390a1600060066000610807611091565b73ffffffffffffffffffffffffffffffffffffffff1673ffffffffffffffffffffffffffffffffffffffff16815260200190815260200160002060000181905550806001600082825461085a9190611657565b925050819055506108696105ca565b6108716105dc565b50565b6000600260009054906101000a900460ff1660ff16905090565b60066020528060005260406000206000915090508060000154908060010154908060020154908060030160009054906101000a900460ff16905084565b6000600260019054906101000a900473ffffffffffffffffffffffffffffffffffffffff1673ffffffffffffffffffffffffffffffffffffffff166370a08231610913611091565b6040518263ffffffff1660e01b815260040161092f91906113dc565b602060405180830381865afa15801561094c573d6000803e3d6000fd5b505050506040513d601f19601f8201168201806040525081019061097091906116a0565b905090565b60008060009054906101000a900473ffffffffffffffffffffffffffffffffffffffff16905090565b600081116109e1576040517f08c379a00000000000000000000000000000000000000000000000000000000081526004016109d890611719565b60405180910390fd5b600660006109ed611091565b73ffffffffffffffffffffffffffffffffffffffff1673ffffffffffffffffffffffffffffffffffffffff16815260200190815260200160002060030160009054906101000a900460ff1615610a4a57610a456105ca565b610b17565b6004610a54611091565b9080600181540180825580915050600190039060005260206000200160009091909190916101000a81548173ffffffffffffffffffffffffffffffffffffffff021916908373ffffffffffffffffffffffffffffffffffffffff160217905550600160066000610ac2611091565b73ffffffffffffffffffffffffffffffffffffffff1673ffffffffffffffffffffffffffffffffffffffff16815260200190815260200160002060030160006101000a81548160ff0219169083151502179055505b600360009054906101000a900473ffffffffffffffffffffffffffffffffffffffff1673ffffffffffffffffffffffffffffffffffffffff166360731176610b5d611091565b836040518363ffffffff1660e01b8152600401610b7b9291906115a6565b600060405180830381600087803b158015610b9557600080fd5b505af1158015610ba9573d6000803e3d6000fd5b50505050600360009054906101000a900473ffffffffffffffffffffffffffffffffffffffff1673ffffffffffffffffffffffffffffffffffffffff166323b872dd610bf3611091565b30846040518463ffffffff1660e01b8152600401610c1393929190611739565b6020604051808303816000875af1158015610c32573d6000803e3d6000fd5b505050506040513d601f19601f82011682018060405250810190610c5691906115fb565b508060066000610c64611091565b73ffffffffffffffffffffffffffffffffffffffff1673ffffffffffffffffffffffffffffffffffffffff1681526020019081526020016000206000016000828254610cb09190611770565b925050819055504260066000610cc4611091565b73ffffffffffffffffffffffffffffffffffffffff1673ffffffffffffffffffffffffffffffffffffffff168152602001908152602001600020600201819055508060016000828254610d179190611770565b925050819055507f8f11c879d1e057d0e90abeaaee476f0bb5fb29306fe7371770a9e04fa30cee3c610d47611091565b82604051610d569291906115a6565b60405180910390a150565b6000600154905090565b60056020528060005260406000206000915054906101000a900460ff1681565b6000151560056000610d9b611091565b73ffffffffffffffffffffffffffffffffffffffff1673ffffffffffffffffffffffffffffffffffffffff16815260200190815260200160002060009054906101000a900460ff16151514610e25576040517f08c379a0000000000000000000000000000000000000000000000000000000008152600401610e1c90611812565b60405180910390fd5b600360009054906101000a900473ffffffffffffffffffffffffffffffffffffffff1673ffffffffffffffffffffffffffffffffffffffff1663a9059cbb610e6b611091565b674563918244f400006040518363ffffffff1660e01b8152600401610e91929190611877565b6020604051808303816000875af1158015610eb0573d6000803e3d6000fd5b505050506040513d601f19601f82011682018060405250810190610ed491906115fb565b50600160056000610ee3611091565b73ffffffffffffffffffffffffffffffffffffffff1673ffffffffffffffffffffffffffffffffffffffff16815260200190815260200160002060006101000a81548160ff0219169083151502179055507f3ea1f7fd2e5f2a54346a9c36803b810392514eea944090aa52756d8044b140ae610f5d611091565b674563918244f40000604051610f74929190611877565b60405180910390a1565b6000600360009054906101000a900473ffffffffffffffffffffffffffffffffffffffff1673ffffffffffffffffffffffffffffffffffffffff166370a08231610fc6611091565b6040518263ffffffff1660e01b8152600401610fe291906113dc565b602060405180830381865afa158015610fff573d6000803e3d6000fd5b505050506040513d601f19601f8201168201806040525081019061102391906116a0565b905090565b6000600360009054906101000a900473ffffffffffffffffffffffffffffffffffffffff16905090565b6004818154811061106257600080fd5b906000526020600020016000915054906101000a900473ffffffffffffffffffffffffffffffffffffffff1681565b600033905090565b6110a281611282565b600660008373ffffffffffffffffffffffffffffffffffffffff1673ffffffffffffffffffffffffffffffffffffffff16815260200190815260200160002060010160008282546110f39190611770565b9250508190555042600660008373ffffffffffffffffffffffffffffffffffffffff1673ffffffffffffffffffffffffffffffffffffffff1681526020019081526020016000206002018190555050565b600260019054906101000a900473ffffffffffffffffffffffffffffffffffffffff1673ffffffffffffffffffffffffffffffffffffffff1663a9059cbb83836040518363ffffffff1660e01b81526004016111a19291906115a6565b6020604051808303816000875af11580156111c0573d6000803e3d6000fd5b505050506040513d601f19601f820116820180604052508101906111e491906115fb565b507f0fc00bc40eefb4ba83ce9d5f39da36a29e3bac12066c66569bb70b42f303970882826040516112169291906115a6565b60405180910390a1806006600061122b611091565b73ffffffffffffffffffffffffffffffffffffffff1673ffffffffffffffffffffffffffffffffffffffff16815260200190815260200160002060010160008282546112779190611657565b925050819055505050565b600080600660008473ffffffffffffffffffffffffffffffffffffffff1673ffffffffffffffffffffffffffffffffffffffff16815260200190815260200160002060000154905060006127106010600260009054906101000a900460ff1660ff1684600660008973ffffffffffffffffffffffffffffffffffffffff1673ffffffffffffffffffffffffffffffffffffffff16815260200190815260200160002060020154426113339190611657565b61133d91906118a0565b61134791906118a0565b61135191906118a0565b61135b9190611929565b90508092505050919050565b6000819050919050565b61137a81611367565b82525050565b60006020820190506113956000830184611371565b92915050565b600073ffffffffffffffffffffffffffffffffffffffff82169050919050565b60006113c68261139b565b9050919050565b6113d6816113bb565b82525050565b60006020820190506113f160008301846113cd565b92915050565b600080fd5b611405816113bb565b811461141057600080fd5b50565b600081359050611422816113fc565b92915050565b60006020828403121561143e5761143d6113f7565b5b600061144c84828501611413565b91505092915050565b60008115159050919050565b61146a81611455565b82525050565b60006080820190506114856000830187611371565b6114926020830186611371565b61149f6040830185611371565b6114ac6060830184611461565b95945050505050565b6114be81611367565b81146114c957600080fd5b50565b6000813590506114db816114b5565b92915050565b6000602082840312156114f7576114f66113f7565b5b6000611505848285016114cc565b91505092915050565b60006020820190506115236000830184611461565b92915050565b600082825260208201905092915050565b7f596f75206e65656420746f2073656e6420736f6d652065746865720000000000600082015250565b6000611570601b83611529565b915061157b8261153a565b602082019050919050565b6000602082019050818103600083015261159f81611563565b9050919050565b60006040820190506115bb60008301856113cd565b6115c86020830184611371565b9392505050565b6115d881611455565b81146115e357600080fd5b50565b6000815190506115f5816115cf565b92915050565b600060208284031215611611576116106113f7565b5b600061161f848285016115e6565b91505092915050565b7f4e487b7100000000000000000000000000000000000000000000000000000000600052601160045260246000fd5b600061166282611367565b915061166d83611367565b9250828210156116805761167f611628565b5b828203905092915050565b60008151905061169a816114b5565b92915050565b6000602082840312156116b6576116b56113f7565b5b60006116c48482850161168b565b91505092915050565b7f616d6f756e742063616e27742062652030000000000000000000000000000000600082015250565b6000611703601183611529565b915061170e826116cd565b602082019050919050565b60006020820190508181036000830152611732816116f6565b9050919050565b600060608201905061174e60008301866113cd565b61175b60208301856113cd565b6117686040830184611371565b949350505050565b600061177b82611367565b915061178683611367565b9250827fffffffffffffffffffffffffffffffffffffffffffffffffffffffffffffffff038211156117bb576117ba611628565b5b828201905092915050565b7f796f752063616e206765742041697264726f70206f6e6c79206f6e6365200000600082015250565b60006117fc601e83611529565b9150611807826117c6565b602082019050919050565b6000602082019050818103600083015261182b816117ef565b9050919050565b6000819050919050565b6000819050919050565b600061186161185c61185784611832565b61183c565b611367565b9050919050565b61187181611846565b82525050565b600060408201905061188c60008301856113cd565b6118996020830184611868565b9392505050565b60006118ab82611367565b91506118b683611367565b9250817fffffffffffffffffffffffffffffffffffffffffffffffffffffffffffffffff04831182151516156118ef576118ee611628565b5b828202905092915050565b7f4e487b7100000000000000000000000000000000000000000000000000000000600052601260045260246000fd5b600061193482611367565b915061193f83611367565b92508261194f5761194e6118fa565b5b82820490509291505056fea26469706673582212206b450ef746688d3fb0ade48aa220759dd3cc736a22ed95f115f4afaf5c805a6964736f6c634300080d0033",
  "immutableReferences": {},
  "source": "// Decentralized Bank , Designed by Abolfazl Iraninasab\r\n// first you should deploy Utility & Governance contracts and give the address of them as inputs of this contract constructor\r\n\r\n// SPDX-License-Identifier: GPL-3.0\r\n\r\npragma solidity >=0.7.0 <0.9.0;\r\n\r\nimport \"@openzeppelin/contracts/utils/Context.sol\";\r\nimport \"./governance.sol\";\r\nimport \"./utility.sol\";\r\n\r\ncontract Bank is Context {\r\n\r\n    address private owner;\r\n    \r\n    uint private totalValueLocked;\r\n    uint8 rewardRate = 1 ;                          // by staking 10 UTL , you get 1 GVN per minute .\r\n   \r\n    Governance private governance ;\r\n    Utility private utility ;\r\n    \r\n    constructor(Governance _governance , Utility _utility){\r\n        governance = _governance ;\r\n        utility = _utility ;\r\n        owner = _msgSender();\r\n\r\n    }\r\n\r\n    // enum steps {                     \\\r\n    //     airdrop,                     |\r\n    //     ICO,                         |====>>   currently not added to this project \r\n    //     staking                      |\r\n    // }                                /\r\n\r\n    // steps public step ;\r\n\r\n\r\n    struct Staker{\r\n        uint balance ;      // that has staked\r\n        uint reward ;       // GVN \r\n        uint stakedTime ;                                // block.timestamp\r\n        bool hasStaked ;\r\n    }\r\n\r\n    address[] public stakers;\r\n\r\n    event tokenStaked(address staker , uint amount );\r\n    event airdropped(address receiver ,uint amount);\r\n    event tokenUnstaked(address staker , uint amount );\r\n    event bought (address user , uint amount );\r\n    event rewardGotten(address user, uint amount);\r\n\r\n    mapping(address => bool) public gottenAirdrop ;     // has user been airdropped before ?\r\n    mapping(address => Staker ) public staker;\r\n\r\n    // mapping(address => uint ) public UTLBalance ;                                     \\\r\n    // mapping(address => uint ) public GVNBalance ;                                     |\r\n    // mapping(address => bool) public hasStaked ;                                       |==>>>> implemented by structure \r\n    // mapping(address => uint ) public stakingBalance ; // UTL token user has staked    /\r\n \r\n\r\n    modifier onlyOwner() {\r\n        require(_msgSender() == owner , \"only owner can execute this function \");\r\n        _;\r\n    }\r\n\r\n\r\n    function getBankAddress() public view returns(address){\r\n        return address(this);\r\n    }\r\n\r\n    function getUtilityAddress() public view returns(address){\r\n        return address(utility);\r\n    }\r\n\r\n    function getGovernanceAddress() public view returns(address){\r\n        return address(governance);\r\n    }\r\n\r\n    \r\n    function getUTLBalance() public view returns(uint){\r\n        // return UTLBalance[_msgSender()];\r\n        return utility.balanceOf(_msgSender());\r\n    }\r\n\r\n    function getGVNBalance() public view returns(uint){\r\n        // return GVNBalance[_msgSender()];\r\n        return governance.balanceOf(_msgSender());\r\n\r\n    }\r\n\r\n    function getStakingBalance() public view returns(uint){\r\n        return staker[_msgSender()].balance ;\r\n    }\r\n\r\n    function getRewardPNL() public view returns(uint){\r\n        return staker[_msgSender()].reward ;\r\n    }\r\n\r\n    function getETHBalance() public view returns (uint ){\r\n        return address(this).balance ;\r\n    }\r\n\r\n\r\n    function getOwner() public view returns(address){\r\n        return owner;\r\n    }\r\n\r\n    function getRewardRate() public view returns(uint256){\r\n        return rewardRate;\r\n    }\r\n\r\n    function getTotalValueLocked() public view returns(uint256){\r\n        return totalValueLocked;\r\n    }\r\n\r\n    function getAirdrop() public{\r\n        require( gottenAirdrop[_msgSender()] == false , \"you can get Airdrop only once \" );\r\n        utility.transfer(_msgSender(), 5 * (10 ** 18));\r\n        gottenAirdrop[_msgSender()] = true ;\r\n        emit airdropped(_msgSender() , 5 * (10 ** 18) );                     // emit airdrop event\r\n\r\n    }\r\n\r\n\r\n    // To keep things simple, we just exchange 1 token for 1 Wei.\r\n    function buyTokenICO() payable public{\r\n        uint amountToBuy = msg.value;\r\n        require(amountToBuy > 0, \"You need to send some ether\");\r\n        utility.transfer(_msgSender(), amountToBuy);\r\n\r\n        emit bought(_msgSender(),amountToBuy);\r\n    }\r\n\r\n\r\n    function stake(uint _amount) public {\r\n        require(_amount > 0, \"amount can't be 0\");\r\n       \r\n        if(staker[_msgSender()].hasStaked){\r\n            updateRewardGVN();\r\n        }else {\r\n            stakers.push(_msgSender());\r\n            staker[_msgSender()].hasStaked = true ;\r\n        }\r\n\r\n        utility.advancedApprove(_msgSender() ,_amount) ;\r\n        utility.transferFrom(_msgSender(), address(this), _amount);\r\n        staker[_msgSender()].balance += _amount;\r\n        staker[_msgSender()].stakedTime = block.timestamp ;\r\n\r\n        totalValueLocked += _amount;\r\n        emit tokenStaked(_msgSender(), _amount);\r\n    }\r\n\r\n\r\n    // with this unstake function you can define the amount of UTL that you want to unstake .\r\n\r\n    // function unStake(uint _amount) public {                                      \r\n    //     require(_amount < staker[_msgSender()].balance ,\"insufficient balance\");\r\n    //     updateRewardGVN();\r\n    //     utility.transferFrom(address(this),_msgSender(), _amount);\r\n    //     staker[_msgSender()].balance -= _amount;\r\n    //     staker[_msgSender()].stakedTime = block.timestamp ;\r\n    //     rewardGVN();\r\n    //     totalValueLocked -= _amount;\r\n    //     emit tokenUnstaked( _msgSender() ,  _amount );\r\n\r\n    // }\r\n\r\n\r\n    function unStake() public {\r\n        uint _amount = staker[_msgSender()].balance ;\r\n        // utility.transferFrom(address(this),_msgSender(), _amount );  // in remix works but in vs code doesn't !!!!\r\n        utility.transfer(_msgSender(), _amount );\r\n        emit tokenUnstaked( _msgSender() ,_amount);\r\n        staker[_msgSender()].balance = 0 ;\r\n        totalValueLocked -= _amount;\r\n\r\n        // staker[_msgSender()].stakedTime = block.timestamp ;\r\n        updateRewardGVN();\r\n        rewardGVN();\r\n        // emit tokenUnstaked(_msgSender() , _amount );\r\n\r\n    }\r\n\r\n\r\n    function rewardGVN() public {\r\n        _rewardGVN(_msgSender(),staker[_msgSender()].reward);\r\n    }\r\n\r\n    function _rewardGVN(address receiver , uint _amount ) private {\r\n        // governance.transferFrom(address(this),receiver , _amount);       // in remix works but in vs code doesn't !!!!\r\n        governance.transfer(receiver , _amount);\r\n        emit rewardGotten(receiver , _amount);\r\n\r\n        staker[_msgSender()].reward -= _amount;\r\n\r\n    }\r\n\r\n\r\n    function updateRewardGVN() public {\r\n        _updateRewardGVN(_msgSender());\r\n    }\r\n\r\n    function _updateRewardGVN(address receiver) private {\r\n        // require(staker[receiver].balance != 0 , \"your cuurent balance is zero !\");\r\n        staker[receiver].reward += calcReward(receiver);\r\n        staker[receiver].stakedTime = block.timestamp ;\r\n\r\n    }\r\n\r\n    function calcReward(address user) private view returns(uint ) {\r\n        uint userBalance = staker[user].balance;\r\n        // require((block.timestamp - staker[user].stakedTime) * userBalance >=100 , \"please wait more\");\r\n        // uint _reward = staker[user].balance /10 ;\r\n        // for(uint i = staker[user].stakedTime ; i< block.timestamp ; i++){\r\n        //     _reward += userBalance/100 ;\r\n        // }\r\n\r\n        // by staking 10 UTL , you get 1 GVN per min :\r\n        uint _reward = (block.timestamp - staker[user].stakedTime) * userBalance * rewardRate *16 / 10000 ;   \r\n        return _reward ;\r\n\r\n    }\r\n\r\n}\r\n\r\n// THE END\r\n\r\n",
  "sourcePath": "C:\\Users\\HP\\Documents\\DApp\\DBank\\contract\\contracts\\decentralizedBank.sol",
  "compiler": {
    "name": "solc",
    "version": "0.8.13+commit.abaa5c0e.Emscripten.clang"
  },
  "schemaVersion": "3.4.6",
  "updatedAt": "2022-08-10T08:23:49.547Z",
  "devdoc": {
    "kind": "dev",
    "methods": {},
    "version": 1
  },
  "userdoc": {
    "kind": "user",
    "methods": {},
    "version": 1
  }
}