{
  "contractName": "Governance",
  "abi": [
    {
      "inputs": [],
      "stateMutability": "nonpayable",
      "type": "constructor"
    },
    {
      "anonymous": false,
      "inputs": [
        {
          "indexed": true,
          "internalType": "address",
          "name": "owner",
          "type": "address"
        },
        {
          "indexed": true,
          "internalType": "address",
          "name": "spender",
          "type": "address"
        },
        {
          "indexed": false,
          "internalType": "uint256",
          "name": "value",
          "type": "uint256"
        }
      ],
      "name": "Approval",
      "type": "event"
    },
    {
      "anonymous": false,
      "inputs": [
        {
          "indexed": true,
          "internalType": "address",
          "name": "from",
          "type": "address"
        },
        {
          "indexed": true,
          "internalType": "address",
          "name": "to",
          "type": "address"
        },
        {
          "indexed": false,
          "internalType": "uint256",
          "name": "value",
          "type": "uint256"
        }
      ],
      "name": "Transfer",
      "type": "event"
    },
    {
      "inputs": [],
      "name": "_name",
      "outputs": [
        {
          "internalType": "string",
          "name": "",
          "type": "string"
        }
      ],
      "stateMutability": "view",
      "type": "function"
    },
    {
      "inputs": [],
      "name": "_symbol",
      "outputs": [
        {
          "internalType": "string",
          "name": "",
          "type": "string"
        }
      ],
      "stateMutability": "view",
      "type": "function"
    },
    {
      "inputs": [
        {
          "internalType": "address",
          "name": "owner",
          "type": "address"
        },
        {
          "internalType": "address",
          "name": "spender",
          "type": "address"
        }
      ],
      "name": "allowance",
      "outputs": [
        {
          "internalType": "uint256",
          "name": "",
          "type": "uint256"
        }
      ],
      "stateMutability": "view",
      "type": "function"
    },
    {
      "inputs": [
        {
          "internalType": "address",
          "name": "spender",
          "type": "address"
        },
        {
          "internalType": "uint256",
          "name": "amount",
          "type": "uint256"
        }
      ],
      "name": "approve",
      "outputs": [
        {
          "internalType": "bool",
          "name": "",
          "type": "bool"
        }
      ],
      "stateMutability": "nonpayable",
      "type": "function"
    },
    {
      "inputs": [
        {
          "internalType": "address",
          "name": "account",
          "type": "address"
        }
      ],
      "name": "balanceOf",
      "outputs": [
        {
          "internalType": "uint256",
          "name": "",
          "type": "uint256"
        }
      ],
      "stateMutability": "view",
      "type": "function"
    },
    {
      "inputs": [],
      "name": "decimals",
      "outputs": [
        {
          "internalType": "uint8",
          "name": "",
          "type": "uint8"
        }
      ],
      "stateMutability": "view",
      "type": "function"
    },
    {
      "inputs": [
        {
          "internalType": "address",
          "name": "spender",
          "type": "address"
        },
        {
          "internalType": "uint256",
          "name": "subtractedValue",
          "type": "uint256"
        }
      ],
      "name": "decreaseAllowance",
      "outputs": [
        {
          "internalType": "bool",
          "name": "",
          "type": "bool"
        }
      ],
      "stateMutability": "nonpayable",
      "type": "function"
    },
    {
      "inputs": [
        {
          "internalType": "address",
          "name": "spender",
          "type": "address"
        },
        {
          "internalType": "uint256",
          "name": "addedValue",
          "type": "uint256"
        }
      ],
      "name": "increaseAllowance",
      "outputs": [
        {
          "internalType": "bool",
          "name": "",
          "type": "bool"
        }
      ],
      "stateMutability": "nonpayable",
      "type": "function"
    },
    {
      "inputs": [],
      "name": "name",
      "outputs": [
        {
          "internalType": "string",
          "name": "",
          "type": "string"
        }
      ],
      "stateMutability": "view",
      "type": "function"
    },
    {
      "inputs": [],
      "name": "symbol",
      "outputs": [
        {
          "internalType": "string",
          "name": "",
          "type": "string"
        }
      ],
      "stateMutability": "view",
      "type": "function"
    },
    {
      "inputs": [],
      "name": "totalSupply",
      "outputs": [
        {
          "internalType": "uint256",
          "name": "",
          "type": "uint256"
        }
      ],
      "stateMutability": "view",
      "type": "function"
    },
    {
      "inputs": [
        {
          "internalType": "address",
          "name": "to",
          "type": "address"
        },
        {
          "internalType": "uint256",
          "name": "amount",
          "type": "uint256"
        }
      ],
      "name": "transfer",
      "outputs": [
        {
          "internalType": "bool",
          "name": "",
          "type": "bool"
        }
      ],
      "stateMutability": "nonpayable",
      "type": "function"
    },
    {
      "inputs": [
        {
          "internalType": "address",
          "name": "from",
          "type": "address"
        },
        {
          "internalType": "address",
          "name": "to",
          "type": "address"
        },
        {
          "internalType": "uint256",
          "name": "amount",
          "type": "uint256"
        }
      ],
      "name": "transferFrom",
      "outputs": [
        {
          "internalType": "bool",
          "name": "",
          "type": "bool"
        }
      ],
      "stateMutability": "nonpayable",
      "type": "function"
    },
    {
      "inputs": [
        {
          "internalType": "address",
          "name": "_bankAddress",
          "type": "address"
        }
      ],
      "name": "verifyBankContract",
      "outputs": [],
      "stateMutability": "nonpayable",
      "type": "function"
    },
    {
      "inputs": [
        {
          "internalType": "address",
          "name": "user",
          "type": "address"
        },
        {
          "internalType": "uint256",
          "name": "amount",
          "type": "uint256"
        }
      ],
      "name": "advancedApprove",
      "outputs": [],
      "stateMutability": "nonpayable",
      "type": "function"
    }
  ],
  "bytecode": "0x60806040526040518060400160405280600a81526020017f676f7665726e616e63650000000000000000000000000000000000000000000081525060059080519060200190620000519291906200042f565b506040518060400160405280600381526020017f47564e0000000000000000000000000000000000000000000000000000000000815250600690805190602001906200009f9291906200042f565b50348015620000ad57600080fd5b5060058054620000bd906200050e565b80601f0160208091040260200160405190810160405280929190818152602001828054620000eb906200050e565b80156200013c5780601f1062000110576101008083540402835291602001916200013c565b820191906000526020600020905b8154815290600101906020018083116200011e57829003601f168201915b50505050506006805462000150906200050e565b80601f01602080910402602001604051908101604052809291908181526020018280546200017e906200050e565b8015620001cf5780601f10620001a357610100808354040283529160200191620001cf565b820191906000526020600020905b815481529060010190602001808311620001b157829003601f168201915b50505050508160039080519060200190620001ec9291906200042f565b508060049080519060200190620002059291906200042f565b50505062000218620002a560201b60201c565b600860006101000a81548173ffffffffffffffffffffffffffffffffffffffff021916908373ffffffffffffffffffffffffffffffffffffffff16021790555069d3c21bcecceda10000006007819055506200029f600860009054906101000a900473ffffffffffffffffffffffffffffffffffffffff16600754620002ad60201b60201c565b6200068a565b600033905090565b600073ffffffffffffffffffffffffffffffffffffffff168273ffffffffffffffffffffffffffffffffffffffff16036200031f576040517f08c379a00000000000000000000000000000000000000000000000000000000081526004016200031690620005a4565b60405180910390fd5b62000333600083836200042560201b60201c565b8060026000828254620003479190620005ff565b92505081905550806000808473ffffffffffffffffffffffffffffffffffffffff1673ffffffffffffffffffffffffffffffffffffffff16815260200190815260200160002060008282546200039e9190620005ff565b925050819055508173ffffffffffffffffffffffffffffffffffffffff16600073ffffffffffffffffffffffffffffffffffffffff167fddf252ad1be2c89b69c2b068fc378daa952ba7f163c4a11628f55a4df523b3ef836040516200040591906200066d565b60405180910390a362000421600083836200042a60201b60201c565b5050565b505050565b505050565b8280546200043d906200050e565b90600052602060002090601f016020900481019282620004615760008555620004ad565b82601f106200047c57805160ff1916838001178555620004ad565b82800160010185558215620004ad579182015b82811115620004ac5782518255916020019190600101906200048f565b5b509050620004bc9190620004c0565b5090565b5b80821115620004db576000816000905550600101620004c1565b5090565b7f4e487b7100000000000000000000000000000000000000000000000000000000600052602260045260246000fd5b600060028204905060018216806200052757607f821691505b6020821081036200053d576200053c620004df565b5b50919050565b600082825260208201905092915050565b7f45524332303a206d696e7420746f20746865207a65726f206164647265737300600082015250565b60006200058c601f8362000543565b9150620005998262000554565b602082019050919050565b60006020820190508181036000830152620005bf816200057d565b9050919050565b6000819050919050565b7f4e487b7100000000000000000000000000000000000000000000000000000000600052601160045260246000fd5b60006200060c82620005c6565b91506200061983620005c6565b9250827fffffffffffffffffffffffffffffffffffffffffffffffffffffffffffffffff03821115620006515762000650620005d0565b5b828201905092915050565b6200066781620005c6565b82525050565b60006020820190506200068460008301846200065c565b92915050565b611706806200069a6000396000f3fe608060405234801561001057600080fd5b50600436106100f55760003560e01c80636073117611610097578063a9059cbb11610066578063a9059cbb1461029a578063b09f1266146102ca578063d28d8852146102e8578063dd62ed3e14610306576100f5565b8063607311761461020057806370a082311461021c57806395d89b411461024c578063a457c2d71461026a576100f5565b806318160ddd116100d357806318160ddd1461016457806323b872dd14610182578063313ce567146101b257806339509351146101d0576100f5565b806306fdde03146100fa578063095ea7b31461011857806310faee1a14610148575b600080fd5b610102610336565b60405161010f9190610e9d565b60405180910390f35b610132600480360381019061012d9190610f58565b6103c8565b60405161013f9190610fb3565b60405180910390f35b610162600480360381019061015d9190610fce565b6103eb565b005b61016c6104c6565b604051610179919061100a565b60405180910390f35b61019c60048036038101906101979190611025565b6104d0565b6040516101a99190610fb3565b60405180910390f35b6101ba6104ff565b6040516101c79190611094565b60405180910390f35b6101ea60048036038101906101e59190610f58565b610508565b6040516101f79190610fb3565b60405180910390f35b61021a60048036038101906102159190610f58565b61053f565b005b61023660048036038101906102319190610fce565b610607565b604051610243919061100a565b60405180910390f35b61025461064f565b6040516102619190610e9d565b60405180910390f35b610284600480360381019061027f9190610f58565b6106e1565b6040516102919190610fb3565b60405180910390f35b6102b460048036038101906102af9190610f58565b610758565b6040516102c19190610fb3565b60405180910390f35b6102d261077b565b6040516102df9190610e9d565b60405180910390f35b6102f0610809565b6040516102fd9190610e9d565b60405180910390f35b610320600480360381019061031b91906110af565b610897565b60405161032d919061100a565b60405180910390f35b6060600380546103459061111e565b80601f01602080910402602001604051908101604052809291908181526020018280546103719061111e565b80156103be5780601f10610393576101008083540402835291602001916103be565b820191906000526020600020905b8154815290600101906020018083116103a157829003601f168201915b5050505050905090565b6000806103d361091e565b90506103e0818585610926565b600191505092915050565b600860009054906101000a900473ffffffffffffffffffffffffffffffffffffffff1673ffffffffffffffffffffffffffffffffffffffff1661042c61091e565b73ffffffffffffffffffffffffffffffffffffffff1614610482576040517f08c379a0000000000000000000000000000000000000000000000000000000008152600401610479906111c1565b60405180910390fd5b80600960006101000a81548173ffffffffffffffffffffffffffffffffffffffff021916908373ffffffffffffffffffffffffffffffffffffffff16021790555050565b6000600254905090565b6000806104db61091e565b90506104e8858285610aef565b6104f3858585610b7b565b60019150509392505050565b60006012905090565b60008061051361091e565b90506105348185856105258589610897565b61052f9190611210565b610926565b600191505092915050565b600960009054906101000a900473ffffffffffffffffffffffffffffffffffffffff1673ffffffffffffffffffffffffffffffffffffffff1661058061091e565b73ffffffffffffffffffffffffffffffffffffffff16146105d6576040517f08c379a00000000000000000000000000000000000000000000000000000000081526004016105cd906112d8565b60405180910390fd5b61060382600960009054906101000a900473ffffffffffffffffffffffffffffffffffffffff1683610926565b5050565b60008060008373ffffffffffffffffffffffffffffffffffffffff1673ffffffffffffffffffffffffffffffffffffffff168152602001908152602001600020549050919050565b60606004805461065e9061111e565b80601f016020809104026020016040519081016040528092919081815260200182805461068a9061111e565b80156106d75780601f106106ac576101008083540402835291602001916106d7565b820191906000526020600020905b8154815290600101906020018083116106ba57829003601f168201915b5050505050905090565b6000806106ec61091e565b905060006106fa8286610897565b90508381101561073f576040517f08c379a00000000000000000000000000000000000000000000000000000000081526004016107369061136a565b60405180910390fd5b61074c8286868403610926565b60019250505092915050565b60008061076361091e565b9050610770818585610b7b565b600191505092915050565b600680546107889061111e565b80601f01602080910402602001604051908101604052809291908181526020018280546107b49061111e565b80156108015780601f106107d657610100808354040283529160200191610801565b820191906000526020600020905b8154815290600101906020018083116107e457829003601f168201915b505050505081565b600580546108169061111e565b80601f01602080910402602001604051908101604052809291908181526020018280546108429061111e565b801561088f5780601f106108645761010080835404028352916020019161088f565b820191906000526020600020905b81548152906001019060200180831161087257829003601f168201915b505050505081565b6000600160008473ffffffffffffffffffffffffffffffffffffffff1673ffffffffffffffffffffffffffffffffffffffff16815260200190815260200160002060008373ffffffffffffffffffffffffffffffffffffffff1673ffffffffffffffffffffffffffffffffffffffff16815260200190815260200160002054905092915050565b600033905090565b600073ffffffffffffffffffffffffffffffffffffffff168373ffffffffffffffffffffffffffffffffffffffff1603610995576040517f08c379a000000000000000000000000000000000000000000000000000000000815260040161098c906113fc565b60405180910390fd5b600073ffffffffffffffffffffffffffffffffffffffff168273ffffffffffffffffffffffffffffffffffffffff1603610a04576040517f08c379a00000000000000000000000000000000000000000000000000000000081526004016109fb9061148e565b60405180910390fd5b80600160008573ffffffffffffffffffffffffffffffffffffffff1673ffffffffffffffffffffffffffffffffffffffff16815260200190815260200160002060008473ffffffffffffffffffffffffffffffffffffffff1673ffffffffffffffffffffffffffffffffffffffff168152602001908152602001600020819055508173ffffffffffffffffffffffffffffffffffffffff168373ffffffffffffffffffffffffffffffffffffffff167f8c5be1e5ebec7d5bd14f71427d1e84f3dd0314c0f7b2291e5b200ac8c7c3b92583604051610ae2919061100a565b60405180910390a3505050565b6000610afb8484610897565b90507fffffffffffffffffffffffffffffffffffffffffffffffffffffffffffffffff8114610b755781811015610b67576040517f08c379a0000000000000000000000000000000000000000000000000000000008152600401610b5e906114fa565b60405180910390fd5b610b748484848403610926565b5b50505050565b600073ffffffffffffffffffffffffffffffffffffffff168373ffffffffffffffffffffffffffffffffffffffff1603610bea576040517f08c379a0000000000000000000000000000000000000000000000000000000008152600401610be19061158c565b60405180910390fd5b600073ffffffffffffffffffffffffffffffffffffffff168273ffffffffffffffffffffffffffffffffffffffff1603610c59576040517f08c379a0000000000000000000000000000000000000000000000000000000008152600401610c509061161e565b60405180910390fd5b610c64838383610dfa565b60008060008573ffffffffffffffffffffffffffffffffffffffff1673ffffffffffffffffffffffffffffffffffffffff16815260200190815260200160002054905081811015610cea576040517f08c379a0000000000000000000000000000000000000000000000000000000008152600401610ce1906116b0565b60405180910390fd5b8181036000808673ffffffffffffffffffffffffffffffffffffffff1673ffffffffffffffffffffffffffffffffffffffff16815260200190815260200160002081905550816000808573ffffffffffffffffffffffffffffffffffffffff1673ffffffffffffffffffffffffffffffffffffffff1681526020019081526020016000206000828254610d7d9190611210565b925050819055508273ffffffffffffffffffffffffffffffffffffffff168473ffffffffffffffffffffffffffffffffffffffff167fddf252ad1be2c89b69c2b068fc378daa952ba7f163c4a11628f55a4df523b3ef84604051610de1919061100a565b60405180910390a3610df4848484610dff565b50505050565b505050565b505050565b600081519050919050565b600082825260208201905092915050565b60005b83811015610e3e578082015181840152602081019050610e23565b83811115610e4d576000848401525b50505050565b6000601f19601f8301169050919050565b6000610e6f82610e04565b610e798185610e0f565b9350610e89818560208601610e20565b610e9281610e53565b840191505092915050565b60006020820190508181036000830152610eb78184610e64565b905092915050565b600080fd5b600073ffffffffffffffffffffffffffffffffffffffff82169050919050565b6000610eef82610ec4565b9050919050565b610eff81610ee4565b8114610f0a57600080fd5b50565b600081359050610f1c81610ef6565b92915050565b6000819050919050565b610f3581610f22565b8114610f4057600080fd5b50565b600081359050610f5281610f2c565b92915050565b60008060408385031215610f6f57610f6e610ebf565b5b6000610f7d85828601610f0d565b9250506020610f8e85828601610f43565b9150509250929050565b60008115159050919050565b610fad81610f98565b82525050565b6000602082019050610fc86000830184610fa4565b92915050565b600060208284031215610fe457610fe3610ebf565b5b6000610ff284828501610f0d565b91505092915050565b61100481610f22565b82525050565b600060208201905061101f6000830184610ffb565b92915050565b60008060006060848603121561103e5761103d610ebf565b5b600061104c86828701610f0d565b935050602061105d86828701610f0d565b925050604061106e86828701610f43565b9150509250925092565b600060ff82169050919050565b61108e81611078565b82525050565b60006020820190506110a96000830184611085565b92915050565b600080604083850312156110c6576110c5610ebf565b5b60006110d485828601610f0d565b92505060206110e585828601610f0d565b9150509250929050565b7f4e487b7100000000000000000000000000000000000000000000000000000000600052602260045260246000fd5b6000600282049050600182168061113657607f821691505b602082108103611149576111486110ef565b5b50919050565b7f206f6e6c79206f776e65722063616e206578656375746520746869732066756e60008201527f6374696f6e200000000000000000000000000000000000000000000000000000602082015250565b60006111ab602683610e0f565b91506111b68261114f565b604082019050919050565b600060208201905081810360008301526111da8161119e565b9050919050565b7f4e487b7100000000000000000000000000000000000000000000000000000000600052601160045260246000fd5b600061121b82610f22565b915061122683610f22565b9250827fffffffffffffffffffffffffffffffffffffffffffffffffffffffffffffffff0382111561125b5761125a6111e1565b5b828201905092915050565b7f206f6e6c792042616e6b20636f6e74726163742063616e20657865637574652060008201527f746869732066756e6374696f6e20000000000000000000000000000000000000602082015250565b60006112c2602e83610e0f565b91506112cd82611266565b604082019050919050565b600060208201905081810360008301526112f1816112b5565b9050919050565b7f45524332303a2064656372656173656420616c6c6f77616e63652062656c6f7760008201527f207a65726f000000000000000000000000000000000000000000000000000000602082015250565b6000611354602583610e0f565b915061135f826112f8565b604082019050919050565b6000602082019050818103600083015261138381611347565b9050919050565b7f45524332303a20617070726f76652066726f6d20746865207a65726f2061646460008201527f7265737300000000000000000000000000000000000000000000000000000000602082015250565b60006113e6602483610e0f565b91506113f18261138a565b604082019050919050565b60006020820190508181036000830152611415816113d9565b9050919050565b7f45524332303a20617070726f766520746f20746865207a65726f20616464726560008201527f7373000000000000000000000000000000000000000000000000000000000000602082015250565b6000611478602283610e0f565b91506114838261141c565b604082019050919050565b600060208201905081810360008301526114a78161146b565b9050919050565b7f45524332303a20696e73756666696369656e7420616c6c6f77616e6365000000600082015250565b60006114e4601d83610e0f565b91506114ef826114ae565b602082019050919050565b60006020820190508181036000830152611513816114d7565b9050919050565b7f45524332303a207472616e736665722066726f6d20746865207a65726f20616460008201527f6472657373000000000000000000000000000000000000000000000000000000602082015250565b6000611576602583610e0f565b91506115818261151a565b604082019050919050565b600060208201905081810360008301526115a581611569565b9050919050565b7f45524332303a207472616e7366657220746f20746865207a65726f206164647260008201527f6573730000000000000000000000000000000000000000000000000000000000602082015250565b6000611608602383610e0f565b9150611613826115ac565b604082019050919050565b60006020820190508181036000830152611637816115fb565b9050919050565b7f45524332303a207472616e7366657220616d6f756e742065786365656473206260008201527f616c616e63650000000000000000000000000000000000000000000000000000602082015250565b600061169a602683610e0f565b91506116a58261163e565b604082019050919050565b600060208201905081810360008301526116c98161168d565b905091905056fea264697066735822122060a3b93241cd1fa82038abde1240c930699333e924fc4940ee229a7dbaf368e064736f6c634300080d0033",
  "immutableReferences": {},
  "source": "// SPDX-License-Identifier: GPL-3.0\r\n\r\npragma solidity >=0.7.0 <0.9.0;\r\n\r\nimport \"@openzeppelin/contracts/token/ERC20/ERC20.sol\";\r\n\r\ncontract Governance is ERC20 {\r\n\r\n    string public _name = \"governance\" ;\r\n    string public _symbol = \"GVN\";\r\n    uint private _totalSupply ;\r\n    address private owner ;\r\n    address private bankAddress ;\r\n\r\n    constructor() ERC20(_name, _symbol) {\r\n        owner = _msgSender();\r\n        _totalSupply = (10 ** 6) * ( 10**18 );\r\n        _mint( owner , _totalSupply );\r\n\r\n    }\r\n\r\n    function verifyBankContract(address _bankAddress) public {                     // get the address of Bank contract\r\n    require(_msgSender()== owner,\" only owner can execute this function \");\r\n    bankAddress = _bankAddress ;\r\n    }\r\n\r\n    function advancedApprove(address user , uint amount) public {\r\n        require(_msgSender() == bankAddress,\" only Bank contract can execute this function \");\r\n        _approve( user, bankAddress, amount);\r\n    }\r\n\r\n}",
  "sourcePath": "C:\\Users\\HP\\Documents\\DApp\\DBank\\contract\\contracts\\governance.sol",
  "compiler": {
    "name": "solc",
    "version": "0.8.13+commit.abaa5c0e.Emscripten.clang"
  },
  "schemaVersion": "3.4.6",
  "updatedAt": "2022-08-10T08:23:49.591Z",
  "devdoc": {
    "kind": "dev",
    "methods": {
      "allowance(address,address)": {
        "details": "See {IERC20-allowance}."
      },
      "approve(address,uint256)": {
        "details": "See {IERC20-approve}. NOTE: If `amount` is the maximum `uint256`, the allowance is not updated on `transferFrom`. This is semantically equivalent to an infinite approval. Requirements: - `spender` cannot be the zero address."
      },
      "balanceOf(address)": {
        "details": "See {IERC20-balanceOf}."
      },
      "decimals()": {
        "details": "Returns the number of decimals used to get its user representation. For example, if `decimals` equals `2`, a balance of `505` tokens should be displayed to a user as `5.05` (`505 / 10 ** 2`). Tokens usually opt for a value of 18, imitating the relationship between Ether and Wei. This is the value {ERC20} uses, unless this function is overridden; NOTE: This information is only used for _display_ purposes: it in no way affects any of the arithmetic of the contract, including {IERC20-balanceOf} and {IERC20-transfer}."
      },
      "decreaseAllowance(address,uint256)": {
        "details": "Atomically decreases the allowance granted to `spender` by the caller. This is an alternative to {approve} that can be used as a mitigation for problems described in {IERC20-approve}. Emits an {Approval} event indicating the updated allowance. Requirements: - `spender` cannot be the zero address. - `spender` must have allowance for the caller of at least `subtractedValue`."
      },
      "increaseAllowance(address,uint256)": {
        "details": "Atomically increases the allowance granted to `spender` by the caller. This is an alternative to {approve} that can be used as a mitigation for problems described in {IERC20-approve}. Emits an {Approval} event indicating the updated allowance. Requirements: - `spender` cannot be the zero address."
      },
      "name()": {
        "details": "Returns the name of the token."
      },
      "symbol()": {
        "details": "Returns the symbol of the token, usually a shorter version of the name."
      },
      "totalSupply()": {
        "details": "See {IERC20-totalSupply}."
      },
      "transfer(address,uint256)": {
        "details": "See {IERC20-transfer}. Requirements: - `to` cannot be the zero address. - the caller must have a balance of at least `amount`."
      },
      "transferFrom(address,address,uint256)": {
        "details": "See {IERC20-transferFrom}. Emits an {Approval} event indicating the updated allowance. This is not required by the EIP. See the note at the beginning of {ERC20}. NOTE: Does not update the allowance if the current allowance is the maximum `uint256`. Requirements: - `from` and `to` cannot be the zero address. - `from` must have a balance of at least `amount`. - the caller must have allowance for ``from``'s tokens of at least `amount`."
      }
    },
    "version": 1
  },
  "userdoc": {
    "kind": "user",
    "methods": {},
    "version": 1
  }
}